{
  "_format": "hh-sol-artifact-1",
  "contractName": "Minter",
  "sourceName": "contracts/NFT.sol",
  "abi": [
    {
      "inputs": [],
      "stateMutability": "nonpayable",
      "type": "constructor"
    },
    {
      "inputs": [],
      "name": "ERC721EnumerableForbiddenBatchMint",
      "type": "error"
    },
    {
      "inputs": [
        {
          "internalType": "address",
          "name": "sender",
          "type": "address"
        },
        {
          "internalType": "uint256",
          "name": "tokenId",
          "type": "uint256"
        },
        {
          "internalType": "address",
          "name": "owner",
          "type": "address"
        }
      ],
      "name": "ERC721IncorrectOwner",
      "type": "error"
    },
    {
      "inputs": [
        {
          "internalType": "address",
          "name": "operator",
          "type": "address"
        },
        {
          "internalType": "uint256",
          "name": "tokenId",
          "type": "uint256"
        }
      ],
      "name": "ERC721InsufficientApproval",
      "type": "error"
    },
    {
      "inputs": [
        {
          "internalType": "address",
          "name": "approver",
          "type": "address"
        }
      ],
      "name": "ERC721InvalidApprover",
      "type": "error"
    },
    {
      "inputs": [
        {
          "internalType": "address",
          "name": "operator",
          "type": "address"
        }
      ],
      "name": "ERC721InvalidOperator",
      "type": "error"
    },
    {
      "inputs": [
        {
          "internalType": "address",
          "name": "owner",
          "type": "address"
        }
      ],
      "name": "ERC721InvalidOwner",
      "type": "error"
    },
    {
      "inputs": [
        {
          "internalType": "address",
          "name": "receiver",
          "type": "address"
        }
      ],
      "name": "ERC721InvalidReceiver",
      "type": "error"
    },
    {
      "inputs": [
        {
          "internalType": "address",
          "name": "sender",
          "type": "address"
        }
      ],
      "name": "ERC721InvalidSender",
      "type": "error"
    },
    {
      "inputs": [
        {
          "internalType": "uint256",
          "name": "tokenId",
          "type": "uint256"
        }
      ],
      "name": "ERC721NonexistentToken",
      "type": "error"
    },
    {
      "inputs": [
        {
          "internalType": "address",
          "name": "owner",
          "type": "address"
        },
        {
          "internalType": "uint256",
          "name": "index",
          "type": "uint256"
        }
      ],
      "name": "ERC721OutOfBoundsIndex",
      "type": "error"
    },
    {
      "anonymous": false,
      "inputs": [
        {
          "indexed": true,
          "internalType": "address",
          "name": "owner",
          "type": "address"
        },
        {
          "indexed": true,
          "internalType": "address",
          "name": "approved",
          "type": "address"
        },
        {
          "indexed": true,
          "internalType": "uint256",
          "name": "tokenId",
          "type": "uint256"
        }
      ],
      "name": "Approval",
      "type": "event"
    },
    {
      "anonymous": false,
      "inputs": [
        {
          "indexed": true,
          "internalType": "address",
          "name": "owner",
          "type": "address"
        },
        {
          "indexed": true,
          "internalType": "address",
          "name": "operator",
          "type": "address"
        },
        {
          "indexed": false,
          "internalType": "bool",
          "name": "approved",
          "type": "bool"
        }
      ],
      "name": "ApprovalForAll",
      "type": "event"
    },
    {
      "anonymous": false,
      "inputs": [
        {
          "indexed": true,
          "internalType": "address",
          "name": "from",
          "type": "address"
        },
        {
          "indexed": true,
          "internalType": "address",
          "name": "to",
          "type": "address"
        },
        {
          "indexed": true,
          "internalType": "uint256",
          "name": "tokenId",
          "type": "uint256"
        }
      ],
      "name": "Transfer",
      "type": "event"
    },
    {
      "inputs": [
        {
          "internalType": "address",
          "name": "to",
          "type": "address"
        },
        {
          "internalType": "uint256",
          "name": "tokenId",
          "type": "uint256"
        }
      ],
      "name": "approve",
      "outputs": [],
      "stateMutability": "nonpayable",
      "type": "function"
    },
    {
      "inputs": [
        {
          "internalType": "address",
          "name": "owner",
          "type": "address"
        }
      ],
      "name": "balanceOf",
      "outputs": [
        {
          "internalType": "uint256",
          "name": "",
          "type": "uint256"
        }
      ],
      "stateMutability": "view",
      "type": "function"
    },
    {
      "inputs": [
        {
          "internalType": "uint256",
          "name": "tokenId",
          "type": "uint256"
        }
      ],
      "name": "getApproved",
      "outputs": [
        {
          "internalType": "address",
          "name": "",
          "type": "address"
        }
      ],
      "stateMutability": "view",
      "type": "function"
    },
    {
      "inputs": [],
      "name": "getBalance",
      "outputs": [
        {
          "internalType": "uint256",
          "name": "",
          "type": "uint256"
        }
      ],
      "stateMutability": "view",
      "type": "function"
    },
    {
      "inputs": [
        {
          "internalType": "uint256",
          "name": "tokenId",
          "type": "uint256"
        }
      ],
      "name": "getTokenData",
      "outputs": [
        {
          "components": [
            {
              "internalType": "string",
              "name": "name",
              "type": "string"
            },
            {
              "internalType": "string",
              "name": "imageUrl",
              "type": "string"
            }
          ],
          "internalType": "struct Minter.TokenData",
          "name": "",
          "type": "tuple"
        }
      ],
      "stateMutability": "view",
      "type": "function"
    },
    {
      "inputs": [
        {
          "internalType": "address",
          "name": "owner",
          "type": "address"
        },
        {
          "internalType": "address",
          "name": "operator",
          "type": "address"
        }
      ],
      "name": "isApprovedForAll",
      "outputs": [
        {
          "internalType": "bool",
          "name": "",
          "type": "bool"
        }
      ],
      "stateMutability": "view",
      "type": "function"
    },
    {
      "inputs": [
        {
          "internalType": "string",
          "name": "name",
          "type": "string"
        },
        {
          "internalType": "string",
          "name": "imageUrl",
          "type": "string"
        }
      ],
      "name": "mint",
      "outputs": [],
      "stateMutability": "nonpayable",
      "type": "function"
    },
    {
      "inputs": [],
      "name": "name",
      "outputs": [
        {
          "internalType": "string",
          "name": "",
          "type": "string"
        }
      ],
      "stateMutability": "view",
      "type": "function"
    },
    {
      "inputs": [
        {
          "internalType": "uint256",
          "name": "tokenId",
          "type": "uint256"
        }
      ],
      "name": "ownerOf",
      "outputs": [
        {
          "internalType": "address",
          "name": "",
          "type": "address"
        }
      ],
      "stateMutability": "view",
      "type": "function"
    },
    {
      "inputs": [
        {
          "internalType": "address",
          "name": "from",
          "type": "address"
        },
        {
          "internalType": "address",
          "name": "to",
          "type": "address"
        },
        {
          "internalType": "uint256",
          "name": "tokenId",
          "type": "uint256"
        }
      ],
      "name": "safeTransferFrom",
      "outputs": [],
      "stateMutability": "nonpayable",
      "type": "function"
    },
    {
      "inputs": [
        {
          "internalType": "address",
          "name": "from",
          "type": "address"
        },
        {
          "internalType": "address",
          "name": "to",
          "type": "address"
        },
        {
          "internalType": "uint256",
          "name": "tokenId",
          "type": "uint256"
        },
        {
          "internalType": "bytes",
          "name": "data",
          "type": "bytes"
        }
      ],
      "name": "safeTransferFrom",
      "outputs": [],
      "stateMutability": "nonpayable",
      "type": "function"
    },
    {
      "inputs": [
        {
          "internalType": "address",
          "name": "operator",
          "type": "address"
        },
        {
          "internalType": "bool",
          "name": "approved",
          "type": "bool"
        }
      ],
      "name": "setApprovalForAll",
      "outputs": [],
      "stateMutability": "nonpayable",
      "type": "function"
    },
    {
      "inputs": [
        {
          "internalType": "bytes4",
          "name": "interfaceId",
          "type": "bytes4"
        }
      ],
      "name": "supportsInterface",
      "outputs": [
        {
          "internalType": "bool",
          "name": "",
          "type": "bool"
        }
      ],
      "stateMutability": "view",
      "type": "function"
    },
    {
      "inputs": [],
      "name": "symbol",
      "outputs": [
        {
          "internalType": "string",
          "name": "",
          "type": "string"
        }
      ],
      "stateMutability": "view",
      "type": "function"
    },
    {
      "inputs": [
        {
          "internalType": "uint256",
          "name": "index",
          "type": "uint256"
        }
      ],
      "name": "tokenByIndex",
      "outputs": [
        {
          "internalType": "uint256",
          "name": "",
          "type": "uint256"
        }
      ],
      "stateMutability": "view",
      "type": "function"
    },
    {
      "inputs": [
        {
          "internalType": "address",
          "name": "owner",
          "type": "address"
        },
        {
          "internalType": "uint256",
          "name": "index",
          "type": "uint256"
        }
      ],
      "name": "tokenOfOwnerByIndex",
      "outputs": [
        {
          "internalType": "uint256",
          "name": "",
          "type": "uint256"
        }
      ],
      "stateMutability": "view",
      "type": "function"
    },
    {
      "inputs": [
        {
          "internalType": "uint256",
          "name": "tokenId",
          "type": "uint256"
        }
      ],
      "name": "tokenURI",
      "outputs": [
        {
          "internalType": "string",
          "name": "",
          "type": "string"
        }
      ],
      "stateMutability": "view",
      "type": "function"
    },
    {
      "inputs": [],
      "name": "totalSupply",
      "outputs": [
        {
          "internalType": "uint256",
          "name": "",
          "type": "uint256"
        }
      ],
      "stateMutability": "view",
      "type": "function"
    },
    {
      "inputs": [
        {
          "internalType": "address",
          "name": "from",
          "type": "address"
        },
        {
          "internalType": "address",
          "name": "to",
          "type": "address"
        },
        {
          "internalType": "uint256",
          "name": "tokenId",
          "type": "uint256"
        }
      ],
      "name": "transferFrom",
      "outputs": [],
      "stateMutability": "nonpayable",
      "type": "function"
    }
  ],
  "bytecode": "0x60806040523480156200001157600080fd5b506040518060400160405280600681526020017f4d696e74657200000000000000000000000000000000000000000000000000008152506040518060400160405280600681526020017f4d494e544552000000000000000000000000000000000000000000000000000081525081600090816200008f919062000324565b508060019081620000a1919062000324565b5050506200040b565b600081519050919050565b7f4e487b7100000000000000000000000000000000000000000000000000000000600052604160045260246000fd5b7f4e487b7100000000000000000000000000000000000000000000000000000000600052602260045260246000fd5b600060028204905060018216806200012c57607f821691505b602082108103620001425762000141620000e4565b5b50919050565b60008190508160005260206000209050919050565b60006020601f8301049050919050565b600082821b905092915050565b600060088302620001ac7fffffffffffffffffffffffffffffffffffffffffffffffffffffffffffffffff826200016d565b620001b886836200016d565b95508019841693508086168417925050509392505050565b6000819050919050565b6000819050919050565b600062000205620001ff620001f984620001d0565b620001da565b620001d0565b9050919050565b6000819050919050565b6200022183620001e4565b6200023962000230826200020c565b8484546200017a565b825550505050565b600090565b6200025062000241565b6200025d81848462000216565b505050565b5b8181101562000285576200027960008262000246565b60018101905062000263565b5050565b601f821115620002d4576200029e8162000148565b620002a9846200015d565b81016020851015620002b9578190505b620002d1620002c8856200015d565b83018262000262565b50505b505050565b600082821c905092915050565b6000620002f960001984600802620002d9565b1980831691505092915050565b6000620003148383620002e6565b9150826002028217905092915050565b6200032f82620000aa565b67ffffffffffffffff8111156200034b576200034a620000b5565b5b62000357825462000113565b6200036482828562000289565b600060209050601f8311600181146200039c576000841562000387578287015190505b62000393858262000306565b86555062000403565b601f198416620003ac8662000148565b60005b82811015620003d657848901518255600182019150602085019450602081019050620003af565b86831015620003f65784890151620003f2601f891682620002e6565b8355505b6001600288020188555050505b505050505050565b612cbe806200041b6000396000f3fe608060405234801561001057600080fd5b50600436106101215760003560e01c80634f6ccce7116100ad578063a22cb46511610071578063a22cb4651461032e578063b09afec11461034a578063b88d4fde1461037a578063c87b56dd14610396578063e985e9c5146103c657610121565b80634f6ccce7146102645780636352211e1461029457806370a08231146102c45780638aa0fdad146102f457806395d89b411461031057610121565b806312065fe0116100f457806312065fe0146101c057806318160ddd146101de57806323b872dd146101fc5780632f745c591461021857806342842e0e1461024857610121565b806301ffc9a71461012657806306fdde0314610156578063081812fc14610174578063095ea7b3146101a4575b600080fd5b610140600480360381019061013b9190611f6e565b6103f6565b60405161014d9190611fb6565b60405180910390f35b61015e610470565b60405161016b9190612061565b60405180910390f35b61018e600480360381019061018991906120b9565b610502565b60405161019b9190612127565b60405180910390f35b6101be60048036038101906101b9919061216e565b61051e565b005b6101c8610534565b6040516101d591906121bd565b60405180910390f35b6101e661053c565b6040516101f391906121bd565b60405180910390f35b610216600480360381019061021191906121d8565b610549565b005b610232600480360381019061022d919061216e565b61064b565b60405161023f91906121bd565b60405180910390f35b610262600480360381019061025d91906121d8565b6106f4565b005b61027e600480360381019061027991906120b9565b610714565b60405161028b91906121bd565b60405180910390f35b6102ae60048036038101906102a991906120b9565b61078a565b6040516102bb9190612127565b60405180910390f35b6102de60048036038101906102d9919061222b565b61079c565b6040516102eb91906121bd565b60405180910390f35b61030e6004803603810190610309919061238d565b610856565b005b61031861087c565b6040516103259190612061565b60405180910390f35b61034860048036038101906103439190612431565b61090e565b005b610364600480360381019061035f91906120b9565b610924565b60405161037191906124ff565b60405180910390f35b610394600480360381019061038f91906125c2565b610af2565b005b6103b060048036038101906103ab91906120b9565b610b0f565b6040516103bd9190612061565b60405180910390f35b6103e060048036038101906103db9190612645565b610b78565b6040516103ed9190611fb6565b60405180910390f35b60007f780e9d63000000000000000000000000000000000000000000000000000000007bffffffffffffffffffffffffffffffffffffffffffffffffffffffff1916827bffffffffffffffffffffffffffffffffffffffffffffffffffffffff19161480610469575061046882610c0c565b5b9050919050565b60606000805461047f906126b4565b80601f01602080910402602001604051908101604052809291908181526020018280546104ab906126b4565b80156104f85780601f106104cd576101008083540402835291602001916104f8565b820191906000526020600020905b8154815290600101906020018083116104db57829003601f168201915b5050505050905090565b600061050d82610cee565b5061051782610d76565b9050919050565b610530828261052b610db3565b610dbb565b5050565b600047905090565b6000600880549050905090565b600073ffffffffffffffffffffffffffffffffffffffff168273ffffffffffffffffffffffffffffffffffffffff16036105bb5760006040517f64a0ae920000000000000000000000000000000000000000000000000000000081526004016105b29190612127565b60405180910390fd5b60006105cf83836105ca610db3565b610dcd565b90508373ffffffffffffffffffffffffffffffffffffffff168173ffffffffffffffffffffffffffffffffffffffff1614610645578382826040517f64283d7b00000000000000000000000000000000000000000000000000000000815260040161063c939291906126e5565b60405180910390fd5b50505050565b60006106568361079c565b821061069b5782826040517fa57d13dc00000000000000000000000000000000000000000000000000000000815260040161069292919061271c565b60405180910390fd5b600660008473ffffffffffffffffffffffffffffffffffffffff1673ffffffffffffffffffffffffffffffffffffffff168152602001908152602001600020600083815260200190815260200160002054905092915050565b61070f83838360405180602001604052806000815250610af2565b505050565b600061071e61053c565b8210610764576000826040517fa57d13dc00000000000000000000000000000000000000000000000000000000815260040161075b92919061271c565b60405180910390fd5b6008828154811061077857610777612745565b5b90600052602060002001549050919050565b600061079582610cee565b9050919050565b60008073ffffffffffffffffffffffffffffffffffffffff168273ffffffffffffffffffffffffffffffffffffffff160361080f5760006040517f89c62b640000000000000000000000000000000000000000000000000000000081526004016108069190612127565b60405180910390fd5b600360008373ffffffffffffffffffffffffffffffffffffffff1673ffffffffffffffffffffffffffffffffffffffff168152602001908152602001600020549050919050565b600061086061053c565b905061086c3382610eea565b610877818484610f08565b505050565b60606001805461088b906126b4565b80601f01602080910402602001604051908101604052809291908181526020018280546108b7906126b4565b80156109045780601f106108d957610100808354040283529160200191610904565b820191906000526020600020905b8154815290600101906020018083116108e757829003601f168201915b5050505050905090565b610920610919610db3565b8383610f64565b5050565b61092c611ee8565b60006109378361078a565b9050600073ffffffffffffffffffffffffffffffffffffffff168173ffffffffffffffffffffffffffffffffffffffff16036109a8576040517f08c379a000000000000000000000000000000000000000000000000000000000815260040161099f906127e6565b60405180910390fd5b600a60008481526020019081526020016000206040518060400160405290816000820180546109d6906126b4565b80601f0160208091040260200160405190810160405280929190818152602001828054610a02906126b4565b8015610a4f5780601f10610a2457610100808354040283529160200191610a4f565b820191906000526020600020905b815481529060010190602001808311610a3257829003601f168201915b50505050508152602001600182018054610a68906126b4565b80601f0160208091040260200160405190810160405280929190818152602001828054610a94906126b4565b8015610ae15780601f10610ab657610100808354040283529160200191610ae1565b820191906000526020600020905b815481529060010190602001808311610ac457829003601f168201915b505050505081525050915050919050565b610afd848484610549565b610b09848484846110d3565b50505050565b6060610b1a82610cee565b506000610b2561128a565b90506000815111610b455760405180602001604052806000815250610b70565b80610b4f846112a1565b604051602001610b60929190612842565b6040516020818303038152906040525b915050919050565b6000600560008473ffffffffffffffffffffffffffffffffffffffff1673ffffffffffffffffffffffffffffffffffffffff16815260200190815260200160002060008373ffffffffffffffffffffffffffffffffffffffff1673ffffffffffffffffffffffffffffffffffffffff16815260200190815260200160002060009054906101000a900460ff16905092915050565b60007f80ac58cd000000000000000000000000000000000000000000000000000000007bffffffffffffffffffffffffffffffffffffffffffffffffffffffff1916827bffffffffffffffffffffffffffffffffffffffffffffffffffffffff19161480610cd757507f5b5e139f000000000000000000000000000000000000000000000000000000007bffffffffffffffffffffffffffffffffffffffffffffffffffffffff1916827bffffffffffffffffffffffffffffffffffffffffffffffffffffffff1916145b80610ce75750610ce68261136f565b5b9050919050565b600080610cfa836113d9565b9050600073ffffffffffffffffffffffffffffffffffffffff168173ffffffffffffffffffffffffffffffffffffffff1603610d6d57826040517f7e273289000000000000000000000000000000000000000000000000000000008152600401610d6491906121bd565b60405180910390fd5b80915050919050565b60006004600083815260200190815260200160002060009054906101000a900473ffffffffffffffffffffffffffffffffffffffff169050919050565b600033905090565b610dc88383836001611416565b505050565b600080610ddb8585856115db565b9050600073ffffffffffffffffffffffffffffffffffffffff168173ffffffffffffffffffffffffffffffffffffffff1603610e1f57610e1a846117f5565b610e5e565b8473ffffffffffffffffffffffffffffffffffffffff168173ffffffffffffffffffffffffffffffffffffffff1614610e5d57610e5c818561183e565b5b5b600073ffffffffffffffffffffffffffffffffffffffff168573ffffffffffffffffffffffffffffffffffffffff1603610ea057610e9b8461199f565b610edf565b8473ffffffffffffffffffffffffffffffffffffffff168173ffffffffffffffffffffffffffffffffffffffff1614610ede57610edd8585611a70565b5b5b809150509392505050565b610f04828260405180602001604052806000815250611afb565b5050565b604051806040016040528083815260200182815250600a60008581526020019081526020016000206000820151816000019081610f459190612a12565b506020820151816001019081610f5b9190612a12565b50905050505050565b600073ffffffffffffffffffffffffffffffffffffffff168273ffffffffffffffffffffffffffffffffffffffff1603610fd557816040517f5b08ba18000000000000000000000000000000000000000000000000000000008152600401610fcc9190612127565b60405180910390fd5b80600560008573ffffffffffffffffffffffffffffffffffffffff1673ffffffffffffffffffffffffffffffffffffffff16815260200190815260200160002060008473ffffffffffffffffffffffffffffffffffffffff1673ffffffffffffffffffffffffffffffffffffffff16815260200190815260200160002060006101000a81548160ff0219169083151502179055508173ffffffffffffffffffffffffffffffffffffffff168373ffffffffffffffffffffffffffffffffffffffff167f17307eab39ab6107e8899845ad3d59bd9653f200f220920489ca2b5937696c31836040516110c69190611fb6565b60405180910390a3505050565b60008373ffffffffffffffffffffffffffffffffffffffff163b1115611284578273ffffffffffffffffffffffffffffffffffffffff1663150b7a02611117610db3565b8685856040518563ffffffff1660e01b81526004016111399493929190612b39565b6020604051808303816000875af192505050801561117557506040513d601f19601f820116820180604052508101906111729190612b9a565b60015b6111f9573d80600081146111a5576040519150601f19603f3d011682016040523d82523d6000602084013e6111aa565b606091505b5060008151036111f157836040517f64a0ae920000000000000000000000000000000000000000000000000000000081526004016111e89190612127565b60405180910390fd5b805181602001fd5b63150b7a0260e01b7bffffffffffffffffffffffffffffffffffffffffffffffffffffffff1916817bffffffffffffffffffffffffffffffffffffffffffffffffffffffff19161461128257836040517f64a0ae920000000000000000000000000000000000000000000000000000000081526004016112799190612127565b60405180910390fd5b505b50505050565b606060405180602001604052806000815250905090565b6060600060016112b084611b17565b01905060008167ffffffffffffffff8111156112cf576112ce612262565b5b6040519080825280601f01601f1916602001820160405280156113015781602001600182028036833780820191505090505b509050600082602001820190505b600115611364578080600190039150507f3031323334353637383961626364656600000000000000000000000000000000600a86061a8153600a858161135857611357612bc7565b5b0494506000850361130f575b819350505050919050565b60007f01ffc9a7000000000000000000000000000000000000000000000000000000007bffffffffffffffffffffffffffffffffffffffffffffffffffffffff1916827bffffffffffffffffffffffffffffffffffffffffffffffffffffffff1916149050919050565b60006002600083815260200190815260200160002060009054906101000a900473ffffffffffffffffffffffffffffffffffffffff169050919050565b808061144f5750600073ffffffffffffffffffffffffffffffffffffffff168273ffffffffffffffffffffffffffffffffffffffff1614155b1561158357600061145f84610cee565b9050600073ffffffffffffffffffffffffffffffffffffffff168373ffffffffffffffffffffffffffffffffffffffff16141580156114ca57508273ffffffffffffffffffffffffffffffffffffffff168173ffffffffffffffffffffffffffffffffffffffff1614155b80156114dd57506114db8184610b78565b155b1561151f57826040517fa9fbf51f0000000000000000000000000000000000000000000000000000000081526004016115169190612127565b60405180910390fd5b811561158157838573ffffffffffffffffffffffffffffffffffffffff168273ffffffffffffffffffffffffffffffffffffffff167f8c5be1e5ebec7d5bd14f71427d1e84f3dd0314c0f7b2291e5b200ac8c7c3b92560405160405180910390a45b505b836004600085815260200190815260200160002060006101000a81548173ffffffffffffffffffffffffffffffffffffffff021916908373ffffffffffffffffffffffffffffffffffffffff16021790555050505050565b6000806115e7846113d9565b9050600073ffffffffffffffffffffffffffffffffffffffff168373ffffffffffffffffffffffffffffffffffffffff161461162957611628818486611c6a565b5b600073ffffffffffffffffffffffffffffffffffffffff168173ffffffffffffffffffffffffffffffffffffffff16146116ba5761166b600085600080611416565b6001600360008373ffffffffffffffffffffffffffffffffffffffff1673ffffffffffffffffffffffffffffffffffffffff168152602001908152602001600020600082825403925050819055505b600073ffffffffffffffffffffffffffffffffffffffff168573ffffffffffffffffffffffffffffffffffffffff161461173d576001600360008773ffffffffffffffffffffffffffffffffffffffff1673ffffffffffffffffffffffffffffffffffffffff168152602001908152602001600020600082825401925050819055505b846002600086815260200190815260200160002060006101000a81548173ffffffffffffffffffffffffffffffffffffffff021916908373ffffffffffffffffffffffffffffffffffffffff160217905550838573ffffffffffffffffffffffffffffffffffffffff168273ffffffffffffffffffffffffffffffffffffffff167fddf252ad1be2c89b69c2b068fc378daa952ba7f163c4a11628f55a4df523b3ef60405160405180910390a4809150509392505050565b6008805490506009600083815260200190815260200160002081905550600881908060018154018082558091505060019003906000526020600020016000909190919091505550565b60006118498361079c565b905060006007600084815260200190815260200160002054905081811461192e576000600660008673ffffffffffffffffffffffffffffffffffffffff1673ffffffffffffffffffffffffffffffffffffffff168152602001908152602001600020600084815260200190815260200160002054905080600660008773ffffffffffffffffffffffffffffffffffffffff1673ffffffffffffffffffffffffffffffffffffffff168152602001908152602001600020600084815260200190815260200160002081905550816007600083815260200190815260200160002081905550505b6007600084815260200190815260200160002060009055600660008573ffffffffffffffffffffffffffffffffffffffff1673ffffffffffffffffffffffffffffffffffffffff16815260200190815260200160002060008381526020019081526020016000206000905550505050565b600060016008805490506119b39190612c25565b90506000600960008481526020019081526020016000205490506000600883815481106119e3576119e2612745565b5b906000526020600020015490508060088381548110611a0557611a04612745565b5b906000526020600020018190555081600960008381526020019081526020016000208190555060096000858152602001908152602001600020600090556008805480611a5457611a53612c59565b5b6001900381819060005260206000200160009055905550505050565b60006001611a7d8461079c565b611a879190612c25565b905081600660008573ffffffffffffffffffffffffffffffffffffffff1673ffffffffffffffffffffffffffffffffffffffff168152602001908152602001600020600083815260200190815260200160002081905550806007600084815260200190815260200160002081905550505050565b611b058383611d2e565b611b1260008484846110d3565b505050565b600080600090507a184f03e93ff9f4daa797ed6e38ed64bf6a1f0100000000000000008310611b75577a184f03e93ff9f4daa797ed6e38ed64bf6a1f0100000000000000008381611b6b57611b6a612bc7565b5b0492506040810190505b6d04ee2d6d415b85acef81000000008310611bb2576d04ee2d6d415b85acef81000000008381611ba857611ba7612bc7565b5b0492506020810190505b662386f26fc100008310611be157662386f26fc100008381611bd757611bd6612bc7565b5b0492506010810190505b6305f5e1008310611c0a576305f5e1008381611c0057611bff612bc7565b5b0492506008810190505b6127108310611c2f576127108381611c2557611c24612bc7565b5b0492506004810190505b60648310611c525760648381611c4857611c47612bc7565b5b0492506002810190505b600a8310611c61576001810190505b80915050919050565b611c75838383611e27565b611d2957600073ffffffffffffffffffffffffffffffffffffffff168373ffffffffffffffffffffffffffffffffffffffff1603611cea57806040517f7e273289000000000000000000000000000000000000000000000000000000008152600401611ce191906121bd565b60405180910390fd5b81816040517f177e802f000000000000000000000000000000000000000000000000000000008152600401611d2092919061271c565b60405180910390fd5b505050565b600073ffffffffffffffffffffffffffffffffffffffff168273ffffffffffffffffffffffffffffffffffffffff1603611da05760006040517f64a0ae92000000000000000000000000000000000000000000000000000000008152600401611d979190612127565b60405180910390fd5b6000611dae83836000610dcd565b9050600073ffffffffffffffffffffffffffffffffffffffff168173ffffffffffffffffffffffffffffffffffffffff1614611e225760006040517f73c6ac6e000000000000000000000000000000000000000000000000000000008152600401611e199190612127565b60405180910390fd5b505050565b60008073ffffffffffffffffffffffffffffffffffffffff168373ffffffffffffffffffffffffffffffffffffffff1614158015611edf57508273ffffffffffffffffffffffffffffffffffffffff168473ffffffffffffffffffffffffffffffffffffffff161480611ea05750611e9f8484610b78565b5b80611ede57508273ffffffffffffffffffffffffffffffffffffffff16611ec683610d76565b73ffffffffffffffffffffffffffffffffffffffff16145b5b90509392505050565b604051806040016040528060608152602001606081525090565b6000604051905090565b600080fd5b600080fd5b60007fffffffff0000000000000000000000000000000000000000000000000000000082169050919050565b611f4b81611f16565b8114611f5657600080fd5b50565b600081359050611f6881611f42565b92915050565b600060208284031215611f8457611f83611f0c565b5b6000611f9284828501611f59565b91505092915050565b60008115159050919050565b611fb081611f9b565b82525050565b6000602082019050611fcb6000830184611fa7565b92915050565b600081519050919050565b600082825260208201905092915050565b60005b8381101561200b578082015181840152602081019050611ff0565b60008484015250505050565b6000601f19601f8301169050919050565b600061203382611fd1565b61203d8185611fdc565b935061204d818560208601611fed565b61205681612017565b840191505092915050565b6000602082019050818103600083015261207b8184612028565b905092915050565b6000819050919050565b61209681612083565b81146120a157600080fd5b50565b6000813590506120b38161208d565b92915050565b6000602082840312156120cf576120ce611f0c565b5b60006120dd848285016120a4565b91505092915050565b600073ffffffffffffffffffffffffffffffffffffffff82169050919050565b6000612111826120e6565b9050919050565b61212181612106565b82525050565b600060208201905061213c6000830184612118565b92915050565b61214b81612106565b811461215657600080fd5b50565b60008135905061216881612142565b92915050565b6000806040838503121561218557612184611f0c565b5b600061219385828601612159565b92505060206121a4858286016120a4565b9150509250929050565b6121b781612083565b82525050565b60006020820190506121d260008301846121ae565b92915050565b6000806000606084860312156121f1576121f0611f0c565b5b60006121ff86828701612159565b935050602061221086828701612159565b9250506040612221868287016120a4565b9150509250925092565b60006020828403121561224157612240611f0c565b5b600061224f84828501612159565b91505092915050565b600080fd5b600080fd5b7f4e487b7100000000000000000000000000000000000000000000000000000000600052604160045260246000fd5b61229a82612017565b810181811067ffffffffffffffff821117156122b9576122b8612262565b5b80604052505050565b60006122cc611f02565b90506122d88282612291565b919050565b600067ffffffffffffffff8211156122f8576122f7612262565b5b61230182612017565b9050602081019050919050565b82818337600083830152505050565b600061233061232b846122dd565b6122c2565b90508281526020810184848401111561234c5761234b61225d565b5b61235784828561230e565b509392505050565b600082601f83011261237457612373612258565b5b813561238484826020860161231d565b91505092915050565b600080604083850312156123a4576123a3611f0c565b5b600083013567ffffffffffffffff8111156123c2576123c1611f11565b5b6123ce8582860161235f565b925050602083013567ffffffffffffffff8111156123ef576123ee611f11565b5b6123fb8582860161235f565b9150509250929050565b61240e81611f9b565b811461241957600080fd5b50565b60008135905061242b81612405565b92915050565b6000806040838503121561244857612447611f0c565b5b600061245685828601612159565b92505060206124678582860161241c565b9150509250929050565b600082825260208201905092915050565b600061248d82611fd1565b6124978185612471565b93506124a7818560208601611fed565b6124b081612017565b840191505092915050565b600060408301600083015184820360008601526124d88282612482565b915050602083015184820360208601526124f28282612482565b9150508091505092915050565b6000602082019050818103600083015261251981846124bb565b905092915050565b600067ffffffffffffffff82111561253c5761253b612262565b5b61254582612017565b9050602081019050919050565b600061256561256084612521565b6122c2565b9050828152602081018484840111156125815761258061225d565b5b61258c84828561230e565b509392505050565b600082601f8301126125a9576125a8612258565b5b81356125b9848260208601612552565b91505092915050565b600080600080608085870312156125dc576125db611f0c565b5b60006125ea87828801612159565b94505060206125fb87828801612159565b935050604061260c878288016120a4565b925050606085013567ffffffffffffffff81111561262d5761262c611f11565b5b61263987828801612594565b91505092959194509250565b6000806040838503121561265c5761265b611f0c565b5b600061266a85828601612159565b925050602061267b85828601612159565b9150509250929050565b7f4e487b7100000000000000000000000000000000000000000000000000000000600052602260045260246000fd5b600060028204905060018216806126cc57607f821691505b6020821081036126df576126de612685565b5b50919050565b60006060820190506126fa6000830186612118565b61270760208301856121ae565b6127146040830184612118565b949350505050565b60006040820190506127316000830185612118565b61273e60208301846121ae565b9392505050565b7f4e487b7100000000000000000000000000000000000000000000000000000000600052603260045260246000fd5b7f4552433732314d657461646174613a20517565727920666f72206e6f6e65786960008201527f7374656e7420746f6b656e000000000000000000000000000000000000000000602082015250565b60006127d0602b83611fdc565b91506127db82612774565b604082019050919050565b600060208201905081810360008301526127ff816127c3565b9050919050565b600081905092915050565b600061281c82611fd1565b6128268185612806565b9350612836818560208601611fed565b80840191505092915050565b600061284e8285612811565b915061285a8284612811565b91508190509392505050565b60008190508160005260206000209050919050565b60006020601f8301049050919050565b600082821b905092915050565b6000600883026128c87fffffffffffffffffffffffffffffffffffffffffffffffffffffffffffffffff8261288b565b6128d2868361288b565b95508019841693508086168417925050509392505050565b6000819050919050565b600061290f61290a61290584612083565b6128ea565b612083565b9050919050565b6000819050919050565b612929836128f4565b61293d61293582612916565b848454612898565b825550505050565b600090565b612952612945565b61295d818484612920565b505050565b5b818110156129815761297660008261294a565b600181019050612963565b5050565b601f8211156129c65761299781612866565b6129a08461287b565b810160208510156129af578190505b6129c36129bb8561287b565b830182612962565b50505b505050565b600082821c905092915050565b60006129e9600019846008026129cb565b1980831691505092915050565b6000612a0283836129d8565b9150826002028217905092915050565b612a1b82611fd1565b67ffffffffffffffff811115612a3457612a33612262565b5b612a3e82546126b4565b612a49828285612985565b600060209050601f831160018114612a7c5760008415612a6a578287015190505b612a7485826129f6565b865550612adc565b601f198416612a8a86612866565b60005b82811015612ab257848901518255600182019150602085019450602081019050612a8d565b86831015612acf5784890151612acb601f8916826129d8565b8355505b6001600288020188555050505b505050505050565b600081519050919050565b600082825260208201905092915050565b6000612b0b82612ae4565b612b158185612aef565b9350612b25818560208601611fed565b612b2e81612017565b840191505092915050565b6000608082019050612b4e6000830187612118565b612b5b6020830186612118565b612b6860408301856121ae565b8181036060830152612b7a8184612b00565b905095945050505050565b600081519050612b9481611f42565b92915050565b600060208284031215612bb057612baf611f0c565b5b6000612bbe84828501612b85565b91505092915050565b7f4e487b7100000000000000000000000000000000000000000000000000000000600052601260045260246000fd5b7f4e487b7100000000000000000000000000000000000000000000000000000000600052601160045260246000fd5b6000612c3082612083565b9150612c3b83612083565b9250828203905081811115612c5357612c52612bf6565b5b92915050565b7f4e487b7100000000000000000000000000000000000000000000000000000000600052603160045260246000fdfea2646970667358221220f727be9a60bc22071c3c3fcfa7254d463225d4849270744341ba7a40e626259464736f6c63430008180033",
  "linkReferences": {},
  "deployedLinkReferences": {}
}