{
  "_format": "hh-sol-artifact-1",
  "contractName": "Minter",
  "sourceName": "contracts/NFT.sol",
  "abi": [
    {
      "inputs": [],
      "stateMutability": "nonpayable",
      "type": "constructor"
    },
    {
      "inputs": [],
      "name": "ERC721EnumerableForbiddenBatchMint",
      "type": "error"
    },
    {
      "inputs": [
        {
          "internalType": "address",
          "name": "sender",
          "type": "address"
        },
        {
          "internalType": "uint256",
          "name": "tokenId",
          "type": "uint256"
        },
        {
          "internalType": "address",
          "name": "owner",
          "type": "address"
        }
      ],
      "name": "ERC721IncorrectOwner",
      "type": "error"
    },
    {
      "inputs": [
        {
          "internalType": "address",
          "name": "operator",
          "type": "address"
        },
        {
          "internalType": "uint256",
          "name": "tokenId",
          "type": "uint256"
        }
      ],
      "name": "ERC721InsufficientApproval",
      "type": "error"
    },
    {
      "inputs": [
        {
          "internalType": "address",
          "name": "approver",
          "type": "address"
        }
      ],
      "name": "ERC721InvalidApprover",
      "type": "error"
    },
    {
      "inputs": [
        {
          "internalType": "address",
          "name": "operator",
          "type": "address"
        }
      ],
      "name": "ERC721InvalidOperator",
      "type": "error"
    },
    {
      "inputs": [
        {
          "internalType": "address",
          "name": "owner",
          "type": "address"
        }
      ],
      "name": "ERC721InvalidOwner",
      "type": "error"
    },
    {
      "inputs": [
        {
          "internalType": "address",
          "name": "receiver",
          "type": "address"
        }
      ],
      "name": "ERC721InvalidReceiver",
      "type": "error"
    },
    {
      "inputs": [
        {
          "internalType": "address",
          "name": "sender",
          "type": "address"
        }
      ],
      "name": "ERC721InvalidSender",
      "type": "error"
    },
    {
      "inputs": [
        {
          "internalType": "uint256",
          "name": "tokenId",
          "type": "uint256"
        }
      ],
      "name": "ERC721NonexistentToken",
      "type": "error"
    },
    {
      "inputs": [
        {
          "internalType": "address",
          "name": "owner",
          "type": "address"
        },
        {
          "internalType": "uint256",
          "name": "index",
          "type": "uint256"
        }
      ],
      "name": "ERC721OutOfBoundsIndex",
      "type": "error"
    },
    {
      "anonymous": false,
      "inputs": [
        {
          "indexed": true,
          "internalType": "address",
          "name": "owner",
          "type": "address"
        },
        {
          "indexed": true,
          "internalType": "address",
          "name": "approved",
          "type": "address"
        },
        {
          "indexed": true,
          "internalType": "uint256",
          "name": "tokenId",
          "type": "uint256"
        }
      ],
      "name": "Approval",
      "type": "event"
    },
    {
      "anonymous": false,
      "inputs": [
        {
          "indexed": true,
          "internalType": "address",
          "name": "owner",
          "type": "address"
        },
        {
          "indexed": true,
          "internalType": "address",
          "name": "operator",
          "type": "address"
        },
        {
          "indexed": false,
          "internalType": "bool",
          "name": "approved",
          "type": "bool"
        }
      ],
      "name": "ApprovalForAll",
      "type": "event"
    },
    {
      "anonymous": false,
      "inputs": [
        {
          "indexed": true,
          "internalType": "address",
          "name": "from",
          "type": "address"
        },
        {
          "indexed": true,
          "internalType": "address",
          "name": "to",
          "type": "address"
        },
        {
          "indexed": true,
          "internalType": "uint256",
          "name": "tokenId",
          "type": "uint256"
        }
      ],
      "name": "Transfer",
      "type": "event"
    },
    {
      "inputs": [
        {
          "internalType": "address",
          "name": "to",
          "type": "address"
        },
        {
          "internalType": "uint256",
          "name": "tokenId",
          "type": "uint256"
        }
      ],
      "name": "approve",
      "outputs": [],
      "stateMutability": "nonpayable",
      "type": "function"
    },
    {
      "inputs": [
        {
          "internalType": "address",
          "name": "owner",
          "type": "address"
        }
      ],
      "name": "balanceOf",
      "outputs": [
        {
          "internalType": "uint256",
          "name": "",
          "type": "uint256"
        }
      ],
      "stateMutability": "view",
      "type": "function"
    },
    {
      "inputs": [
        {
          "internalType": "uint256",
          "name": "tokenId",
          "type": "uint256"
        }
      ],
      "name": "getApproved",
      "outputs": [
        {
          "internalType": "address",
          "name": "",
          "type": "address"
        }
      ],
      "stateMutability": "view",
      "type": "function"
    },
    {
      "inputs": [],
      "name": "getBalance",
      "outputs": [
        {
          "internalType": "uint256",
          "name": "",
          "type": "uint256"
        }
      ],
      "stateMutability": "view",
      "type": "function"
    },
    {
      "inputs": [
        {
          "internalType": "uint256",
          "name": "tokenId",
          "type": "uint256"
        }
      ],
      "name": "getTokenData",
      "outputs": [
        {
          "components": [
            {
              "internalType": "string",
              "name": "name",
              "type": "string"
            },
            {
              "internalType": "string",
              "name": "imageUrl",
              "type": "string"
            }
          ],
          "internalType": "struct Minter.TokenData",
          "name": "",
          "type": "tuple"
        }
      ],
      "stateMutability": "view",
      "type": "function"
    },
    {
      "inputs": [
        {
          "internalType": "address",
          "name": "owner",
          "type": "address"
        },
        {
          "internalType": "address",
          "name": "operator",
          "type": "address"
        }
      ],
      "name": "isApprovedForAll",
      "outputs": [
        {
          "internalType": "bool",
          "name": "",
          "type": "bool"
        }
      ],
      "stateMutability": "view",
      "type": "function"
    },
    {
      "inputs": [
        {
          "internalType": "string",
          "name": "name",
          "type": "string"
        },
        {
          "internalType": "string",
          "name": "imageUrl",
          "type": "string"
        }
      ],
      "name": "mint",
      "outputs": [],
      "stateMutability": "nonpayable",
      "type": "function"
    },
    {
      "inputs": [],
      "name": "name",
      "outputs": [
        {
          "internalType": "string",
          "name": "",
          "type": "string"
        }
      ],
      "stateMutability": "view",
      "type": "function"
    },
    {
      "inputs": [
        {
          "internalType": "uint256",
          "name": "tokenId",
          "type": "uint256"
        }
      ],
      "name": "ownerOf",
      "outputs": [
        {
          "internalType": "address",
          "name": "",
          "type": "address"
        }
      ],
      "stateMutability": "view",
      "type": "function"
    },
    {
      "inputs": [
        {
          "internalType": "address",
          "name": "from",
          "type": "address"
        },
        {
          "internalType": "address",
          "name": "to",
          "type": "address"
        },
        {
          "internalType": "uint256",
          "name": "tokenId",
          "type": "uint256"
        }
      ],
      "name": "safeTransferFrom",
      "outputs": [],
      "stateMutability": "nonpayable",
      "type": "function"
    },
    {
      "inputs": [
        {
          "internalType": "address",
          "name": "from",
          "type": "address"
        },
        {
          "internalType": "address",
          "name": "to",
          "type": "address"
        },
        {
          "internalType": "uint256",
          "name": "tokenId",
          "type": "uint256"
        },
        {
          "internalType": "bytes",
          "name": "data",
          "type": "bytes"
        }
      ],
      "name": "safeTransferFrom",
      "outputs": [],
      "stateMutability": "nonpayable",
      "type": "function"
    },
    {
      "inputs": [
        {
          "internalType": "address",
          "name": "operator",
          "type": "address"
        },
        {
          "internalType": "bool",
          "name": "approved",
          "type": "bool"
        }
      ],
      "name": "setApprovalForAll",
      "outputs": [],
      "stateMutability": "nonpayable",
      "type": "function"
    },
    {
      "inputs": [
        {
          "internalType": "string",
          "name": "baseURI_",
          "type": "string"
        }
      ],
      "name": "setBaseURI",
      "outputs": [],
      "stateMutability": "nonpayable",
      "type": "function"
    },
    {
      "inputs": [
        {
          "internalType": "bytes4",
          "name": "interfaceId",
          "type": "bytes4"
        }
      ],
      "name": "supportsInterface",
      "outputs": [
        {
          "internalType": "bool",
          "name": "",
          "type": "bool"
        }
      ],
      "stateMutability": "view",
      "type": "function"
    },
    {
      "inputs": [],
      "name": "symbol",
      "outputs": [
        {
          "internalType": "string",
          "name": "",
          "type": "string"
        }
      ],
      "stateMutability": "view",
      "type": "function"
    },
    {
      "inputs": [
        {
          "internalType": "uint256",
          "name": "index",
          "type": "uint256"
        }
      ],
      "name": "tokenByIndex",
      "outputs": [
        {
          "internalType": "uint256",
          "name": "",
          "type": "uint256"
        }
      ],
      "stateMutability": "view",
      "type": "function"
    },
    {
      "inputs": [
        {
          "internalType": "address",
          "name": "owner",
          "type": "address"
        },
        {
          "internalType": "uint256",
          "name": "index",
          "type": "uint256"
        }
      ],
      "name": "tokenOfOwnerByIndex",
      "outputs": [
        {
          "internalType": "uint256",
          "name": "",
          "type": "uint256"
        }
      ],
      "stateMutability": "view",
      "type": "function"
    },
    {
      "inputs": [
        {
          "internalType": "uint256",
          "name": "tokenId",
          "type": "uint256"
        }
      ],
      "name": "tokenURI",
      "outputs": [
        {
          "internalType": "string",
          "name": "",
          "type": "string"
        }
      ],
      "stateMutability": "view",
      "type": "function"
    },
    {
      "inputs": [],
      "name": "totalSupply",
      "outputs": [
        {
          "internalType": "uint256",
          "name": "",
          "type": "uint256"
        }
      ],
      "stateMutability": "view",
      "type": "function"
    },
    {
      "inputs": [
        {
          "internalType": "address",
          "name": "from",
          "type": "address"
        },
        {
          "internalType": "address",
          "name": "to",
          "type": "address"
        },
        {
          "internalType": "uint256",
          "name": "tokenId",
          "type": "uint256"
        }
      ],
      "name": "transferFrom",
      "outputs": [],
      "stateMutability": "nonpayable",
      "type": "function"
    }
  ],
  "bytecode": "0x60806040523480156200001157600080fd5b506040518060400160405280600681526020017f4d696e74657200000000000000000000000000000000000000000000000000008152506040518060400160405280600681526020017f4d494e544552000000000000000000000000000000000000000000000000000081525081600090816200008f919062000324565b508060019081620000a1919062000324565b5050506200040b565b600081519050919050565b7f4e487b7100000000000000000000000000000000000000000000000000000000600052604160045260246000fd5b7f4e487b7100000000000000000000000000000000000000000000000000000000600052602260045260246000fd5b600060028204905060018216806200012c57607f821691505b602082108103620001425762000141620000e4565b5b50919050565b60008190508160005260206000209050919050565b60006020601f8301049050919050565b600082821b905092915050565b600060088302620001ac7fffffffffffffffffffffffffffffffffffffffffffffffffffffffffffffffff826200016d565b620001b886836200016d565b95508019841693508086168417925050509392505050565b6000819050919050565b6000819050919050565b600062000205620001ff620001f984620001d0565b620001da565b620001d0565b9050919050565b6000819050919050565b6200022183620001e4565b6200023962000230826200020c565b8484546200017a565b825550505050565b600090565b6200025062000241565b6200025d81848462000216565b505050565b5b8181101562000285576200027960008262000246565b60018101905062000263565b5050565b601f821115620002d4576200029e8162000148565b620002a9846200015d565b81016020851015620002b9578190505b620002d1620002c8856200015d565b83018262000262565b50505b505050565b600082821c905092915050565b6000620002f960001984600802620002d9565b1980831691505092915050565b6000620003148383620002e6565b9150826002028217905092915050565b6200032f82620000aa565b67ffffffffffffffff8111156200034b576200034a620000b5565b5b62000357825462000113565b6200036482828562000289565b600060209050601f8311600181146200039c576000841562000387578287015190505b62000393858262000306565b86555062000403565b601f198416620003ac8662000148565b60005b82811015620003d657848901518255600182019150602085019450602081019050620003af565b86831015620003f65784890151620003f2601f891682620002e6565b8355505b6001600288020188555050505b505050505050565b612e2f806200041b6000396000f3fe608060405234801561001057600080fd5b506004361061012c5760003560e01c806355f804b3116100ad578063a22cb46511610071578063a22cb46514610355578063b09afec114610371578063b88d4fde146103a1578063c87b56dd146103bd578063e985e9c5146103ed5761012c565b806355f804b31461029f5780636352211e146102bb57806370a08231146102eb5780638aa0fdad1461031b57806395d89b41146103375761012c565b806318160ddd116100f457806318160ddd146101e957806323b872dd146102075780632f745c591461022357806342842e0e146102535780634f6ccce71461026f5761012c565b806301ffc9a71461013157806306fdde0314610161578063081812fc1461017f578063095ea7b3146101af57806312065fe0146101cb575b600080fd5b61014b60048036038101906101469190612096565b61041d565b60405161015891906120de565b60405180910390f35b610169610497565b6040516101769190612189565b60405180910390f35b610199600480360381019061019491906121e1565b610529565b6040516101a6919061224f565b60405180910390f35b6101c960048036038101906101c49190612296565b610545565b005b6101d361055b565b6040516101e091906122e5565b60405180910390f35b6101f1610563565b6040516101fe91906122e5565b60405180910390f35b610221600480360381019061021c9190612300565b610570565b005b61023d60048036038101906102389190612296565b610672565b60405161024a91906122e5565b60405180910390f35b61026d60048036038101906102689190612300565b61071b565b005b610289600480360381019061028491906121e1565b61073b565b60405161029691906122e5565b60405180910390f35b6102b960048036038101906102b49190612488565b6107b1565b005b6102d560048036038101906102d091906121e1565b6107c4565b6040516102e2919061224f565b60405180910390f35b610305600480360381019061030091906124d1565b6107d6565b60405161031291906122e5565b60405180910390f35b610335600480360381019061033091906124fe565b610890565b005b61033f6108b6565b60405161034c9190612189565b60405180910390f35b61036f600480360381019061036a91906125a2565b610948565b005b61038b600480360381019061038691906121e1565b61095e565b6040516103989190612670565b60405180910390f35b6103bb60048036038101906103b69190612733565b610b2c565b005b6103d760048036038101906103d291906121e1565b610b49565b6040516103e49190612189565b60405180910390f35b610407600480360381019061040291906127b6565b610c25565b60405161041491906120de565b60405180910390f35b60007f780e9d63000000000000000000000000000000000000000000000000000000007bffffffffffffffffffffffffffffffffffffffffffffffffffffffff1916827bffffffffffffffffffffffffffffffffffffffffffffffffffffffff19161480610490575061048f82610cb9565b5b9050919050565b6060600080546104a690612825565b80601f01602080910402602001604051908101604052809291908181526020018280546104d290612825565b801561051f5780601f106104f45761010080835404028352916020019161051f565b820191906000526020600020905b81548152906001019060200180831161050257829003601f168201915b5050505050905090565b600061053482610d9b565b5061053e82610e23565b9050919050565b6105578282610552610e60565b610e68565b5050565b600047905090565b6000600880549050905090565b600073ffffffffffffffffffffffffffffffffffffffff168273ffffffffffffffffffffffffffffffffffffffff16036105e25760006040517f64a0ae920000000000000000000000000000000000000000000000000000000081526004016105d9919061224f565b60405180910390fd5b60006105f683836105f1610e60565b610e7a565b90508373ffffffffffffffffffffffffffffffffffffffff168173ffffffffffffffffffffffffffffffffffffffff161461066c578382826040517f64283d7b00000000000000000000000000000000000000000000000000000000815260040161066393929190612856565b60405180910390fd5b50505050565b600061067d836107d6565b82106106c25782826040517fa57d13dc0000000000000000000000000000000000000000000000000000000081526004016106b992919061288d565b60405180910390fd5b600660008473ffffffffffffffffffffffffffffffffffffffff1673ffffffffffffffffffffffffffffffffffffffff168152602001908152602001600020600083815260200190815260200160002054905092915050565b61073683838360405180602001604052806000815250610b2c565b505050565b6000610745610563565b821061078b576000826040517fa57d13dc00000000000000000000000000000000000000000000000000000000815260040161078292919061288d565b60405180910390fd5b6008828154811061079f5761079e6128b6565b5b90600052602060002001549050919050565b80600b90816107c09190612a91565b5050565b60006107cf82610d9b565b9050919050565b60008073ffffffffffffffffffffffffffffffffffffffff168273ffffffffffffffffffffffffffffffffffffffff16036108495760006040517f89c62b64000000000000000000000000000000000000000000000000000000008152600401610840919061224f565b60405180910390fd5b600360008373ffffffffffffffffffffffffffffffffffffffff1673ffffffffffffffffffffffffffffffffffffffff168152602001908152602001600020549050919050565b600061089a610563565b90506108a63382610f97565b6108b1818484610fb5565b505050565b6060600180546108c590612825565b80601f01602080910402602001604051908101604052809291908181526020018280546108f190612825565b801561093e5780601f106109135761010080835404028352916020019161093e565b820191906000526020600020905b81548152906001019060200180831161092157829003601f168201915b5050505050905090565b61095a610953610e60565b8383611011565b5050565b610966612010565b6000610971836107c4565b9050600073ffffffffffffffffffffffffffffffffffffffff168173ffffffffffffffffffffffffffffffffffffffff16036109e2576040517f08c379a00000000000000000000000000000000000000000000000000000000081526004016109d990612bd5565b60405180910390fd5b600a6000848152602001908152602001600020604051806040016040529081600082018054610a1090612825565b80601f0160208091040260200160405190810160405280929190818152602001828054610a3c90612825565b8015610a895780601f10610a5e57610100808354040283529160200191610a89565b820191906000526020600020905b815481529060010190602001808311610a6c57829003601f168201915b50505050508152602001600182018054610aa290612825565b80601f0160208091040260200160405190810160405280929190818152602001828054610ace90612825565b8015610b1b5780601f10610af057610100808354040283529160200191610b1b565b820191906000526020600020905b815481529060010190602001808311610afe57829003601f168201915b505050505081525050915050919050565b610b37848484610570565b610b4384848484611180565b50505050565b60606000610b56836107c4565b9050600073ffffffffffffffffffffffffffffffffffffffff168173ffffffffffffffffffffffffffffffffffffffff1603610bc7576040517f08c379a0000000000000000000000000000000000000000000000000000000008152600401610bbe90612bd5565b60405180910390fd5b6000610bd1611337565b90506000815111610bf15760405180602001604052806000815250610c1c565b80610bfb856113c9565b604051602001610c0c929190612c31565b6040516020818303038152906040525b92505050919050565b6000600560008473ffffffffffffffffffffffffffffffffffffffff1673ffffffffffffffffffffffffffffffffffffffff16815260200190815260200160002060008373ffffffffffffffffffffffffffffffffffffffff1673ffffffffffffffffffffffffffffffffffffffff16815260200190815260200160002060009054906101000a900460ff16905092915050565b60007f80ac58cd000000000000000000000000000000000000000000000000000000007bffffffffffffffffffffffffffffffffffffffffffffffffffffffff1916827bffffffffffffffffffffffffffffffffffffffffffffffffffffffff19161480610d8457507f5b5e139f000000000000000000000000000000000000000000000000000000007bffffffffffffffffffffffffffffffffffffffffffffffffffffffff1916827bffffffffffffffffffffffffffffffffffffffffffffffffffffffff1916145b80610d945750610d9382611497565b5b9050919050565b600080610da783611501565b9050600073ffffffffffffffffffffffffffffffffffffffff168173ffffffffffffffffffffffffffffffffffffffff1603610e1a57826040517f7e273289000000000000000000000000000000000000000000000000000000008152600401610e1191906122e5565b60405180910390fd5b80915050919050565b60006004600083815260200190815260200160002060009054906101000a900473ffffffffffffffffffffffffffffffffffffffff169050919050565b600033905090565b610e75838383600161153e565b505050565b600080610e88858585611703565b9050600073ffffffffffffffffffffffffffffffffffffffff168173ffffffffffffffffffffffffffffffffffffffff1603610ecc57610ec78461191d565b610f0b565b8473ffffffffffffffffffffffffffffffffffffffff168173ffffffffffffffffffffffffffffffffffffffff1614610f0a57610f098185611966565b5b5b600073ffffffffffffffffffffffffffffffffffffffff168573ffffffffffffffffffffffffffffffffffffffff1603610f4d57610f4884611ac7565b610f8c565b8473ffffffffffffffffffffffffffffffffffffffff168173ffffffffffffffffffffffffffffffffffffffff1614610f8b57610f8a8585611b98565b5b5b809150509392505050565b610fb1828260405180602001604052806000815250611c23565b5050565b604051806040016040528083815260200182815250600a60008581526020019081526020016000206000820151816000019081610ff29190612a91565b5060208201518160010190816110089190612a91565b50905050505050565b600073ffffffffffffffffffffffffffffffffffffffff168273ffffffffffffffffffffffffffffffffffffffff160361108257816040517f5b08ba18000000000000000000000000000000000000000000000000000000008152600401611079919061224f565b60405180910390fd5b80600560008573ffffffffffffffffffffffffffffffffffffffff1673ffffffffffffffffffffffffffffffffffffffff16815260200190815260200160002060008473ffffffffffffffffffffffffffffffffffffffff1673ffffffffffffffffffffffffffffffffffffffff16815260200190815260200160002060006101000a81548160ff0219169083151502179055508173ffffffffffffffffffffffffffffffffffffffff168373ffffffffffffffffffffffffffffffffffffffff167f17307eab39ab6107e8899845ad3d59bd9653f200f220920489ca2b5937696c318360405161117391906120de565b60405180910390a3505050565b60008373ffffffffffffffffffffffffffffffffffffffff163b1115611331578273ffffffffffffffffffffffffffffffffffffffff1663150b7a026111c4610e60565b8685856040518563ffffffff1660e01b81526004016111e69493929190612caa565b6020604051808303816000875af192505050801561122257506040513d601f19601f8201168201806040525081019061121f9190612d0b565b60015b6112a6573d8060008114611252576040519150601f19603f3d011682016040523d82523d6000602084013e611257565b606091505b50600081510361129e57836040517f64a0ae92000000000000000000000000000000000000000000000000000000008152600401611295919061224f565b60405180910390fd5b805181602001fd5b63150b7a0260e01b7bffffffffffffffffffffffffffffffffffffffffffffffffffffffff1916817bffffffffffffffffffffffffffffffffffffffffffffffffffffffff19161461132f57836040517f64a0ae92000000000000000000000000000000000000000000000000000000008152600401611326919061224f565b60405180910390fd5b505b50505050565b6060600b805461134690612825565b80601f016020809104026020016040519081016040528092919081815260200182805461137290612825565b80156113bf5780601f10611394576101008083540402835291602001916113bf565b820191906000526020600020905b8154815290600101906020018083116113a257829003601f168201915b5050505050905090565b6060600060016113d884611c3f565b01905060008167ffffffffffffffff8111156113f7576113f661235d565b5b6040519080825280601f01601f1916602001820160405280156114295781602001600182028036833780820191505090505b509050600082602001820190505b60011561148c578080600190039150507f3031323334353637383961626364656600000000000000000000000000000000600a86061a8153600a85816114805761147f612d38565b5b04945060008503611437575b819350505050919050565b60007f01ffc9a7000000000000000000000000000000000000000000000000000000007bffffffffffffffffffffffffffffffffffffffffffffffffffffffff1916827bffffffffffffffffffffffffffffffffffffffffffffffffffffffff1916149050919050565b60006002600083815260200190815260200160002060009054906101000a900473ffffffffffffffffffffffffffffffffffffffff169050919050565b80806115775750600073ffffffffffffffffffffffffffffffffffffffff168273ffffffffffffffffffffffffffffffffffffffff1614155b156116ab57600061158784610d9b565b9050600073ffffffffffffffffffffffffffffffffffffffff168373ffffffffffffffffffffffffffffffffffffffff16141580156115f257508273ffffffffffffffffffffffffffffffffffffffff168173ffffffffffffffffffffffffffffffffffffffff1614155b801561160557506116038184610c25565b155b1561164757826040517fa9fbf51f00000000000000000000000000000000000000000000000000000000815260040161163e919061224f565b60405180910390fd5b81156116a957838573ffffffffffffffffffffffffffffffffffffffff168273ffffffffffffffffffffffffffffffffffffffff167f8c5be1e5ebec7d5bd14f71427d1e84f3dd0314c0f7b2291e5b200ac8c7c3b92560405160405180910390a45b505b836004600085815260200190815260200160002060006101000a81548173ffffffffffffffffffffffffffffffffffffffff021916908373ffffffffffffffffffffffffffffffffffffffff16021790555050505050565b60008061170f84611501565b9050600073ffffffffffffffffffffffffffffffffffffffff168373ffffffffffffffffffffffffffffffffffffffff161461175157611750818486611d92565b5b600073ffffffffffffffffffffffffffffffffffffffff168173ffffffffffffffffffffffffffffffffffffffff16146117e25761179360008560008061153e565b6001600360008373ffffffffffffffffffffffffffffffffffffffff1673ffffffffffffffffffffffffffffffffffffffff168152602001908152602001600020600082825403925050819055505b600073ffffffffffffffffffffffffffffffffffffffff168573ffffffffffffffffffffffffffffffffffffffff1614611865576001600360008773ffffffffffffffffffffffffffffffffffffffff1673ffffffffffffffffffffffffffffffffffffffff168152602001908152602001600020600082825401925050819055505b846002600086815260200190815260200160002060006101000a81548173ffffffffffffffffffffffffffffffffffffffff021916908373ffffffffffffffffffffffffffffffffffffffff160217905550838573ffffffffffffffffffffffffffffffffffffffff168273ffffffffffffffffffffffffffffffffffffffff167fddf252ad1be2c89b69c2b068fc378daa952ba7f163c4a11628f55a4df523b3ef60405160405180910390a4809150509392505050565b6008805490506009600083815260200190815260200160002081905550600881908060018154018082558091505060019003906000526020600020016000909190919091505550565b6000611971836107d6565b9050600060076000848152602001908152602001600020549050818114611a56576000600660008673ffffffffffffffffffffffffffffffffffffffff1673ffffffffffffffffffffffffffffffffffffffff168152602001908152602001600020600084815260200190815260200160002054905080600660008773ffffffffffffffffffffffffffffffffffffffff1673ffffffffffffffffffffffffffffffffffffffff168152602001908152602001600020600084815260200190815260200160002081905550816007600083815260200190815260200160002081905550505b6007600084815260200190815260200160002060009055600660008573ffffffffffffffffffffffffffffffffffffffff1673ffffffffffffffffffffffffffffffffffffffff16815260200190815260200160002060008381526020019081526020016000206000905550505050565b60006001600880549050611adb9190612d96565b9050600060096000848152602001908152602001600020549050600060088381548110611b0b57611b0a6128b6565b5b906000526020600020015490508060088381548110611b2d57611b2c6128b6565b5b906000526020600020018190555081600960008381526020019081526020016000208190555060096000858152602001908152602001600020600090556008805480611b7c57611b7b612dca565b5b6001900381819060005260206000200160009055905550505050565b60006001611ba5846107d6565b611baf9190612d96565b905081600660008573ffffffffffffffffffffffffffffffffffffffff1673ffffffffffffffffffffffffffffffffffffffff168152602001908152602001600020600083815260200190815260200160002081905550806007600084815260200190815260200160002081905550505050565b611c2d8383611e56565b611c3a6000848484611180565b505050565b600080600090507a184f03e93ff9f4daa797ed6e38ed64bf6a1f0100000000000000008310611c9d577a184f03e93ff9f4daa797ed6e38ed64bf6a1f0100000000000000008381611c9357611c92612d38565b5b0492506040810190505b6d04ee2d6d415b85acef81000000008310611cda576d04ee2d6d415b85acef81000000008381611cd057611ccf612d38565b5b0492506020810190505b662386f26fc100008310611d0957662386f26fc100008381611cff57611cfe612d38565b5b0492506010810190505b6305f5e1008310611d32576305f5e1008381611d2857611d27612d38565b5b0492506008810190505b6127108310611d57576127108381611d4d57611d4c612d38565b5b0492506004810190505b60648310611d7a5760648381611d7057611d6f612d38565b5b0492506002810190505b600a8310611d89576001810190505b80915050919050565b611d9d838383611f4f565b611e5157600073ffffffffffffffffffffffffffffffffffffffff168373ffffffffffffffffffffffffffffffffffffffff1603611e1257806040517f7e273289000000000000000000000000000000000000000000000000000000008152600401611e0991906122e5565b60405180910390fd5b81816040517f177e802f000000000000000000000000000000000000000000000000000000008152600401611e4892919061288d565b60405180910390fd5b505050565b600073ffffffffffffffffffffffffffffffffffffffff168273ffffffffffffffffffffffffffffffffffffffff1603611ec85760006040517f64a0ae92000000000000000000000000000000000000000000000000000000008152600401611ebf919061224f565b60405180910390fd5b6000611ed683836000610e7a565b9050600073ffffffffffffffffffffffffffffffffffffffff168173ffffffffffffffffffffffffffffffffffffffff1614611f4a5760006040517f73c6ac6e000000000000000000000000000000000000000000000000000000008152600401611f41919061224f565b60405180910390fd5b505050565b60008073ffffffffffffffffffffffffffffffffffffffff168373ffffffffffffffffffffffffffffffffffffffff161415801561200757508273ffffffffffffffffffffffffffffffffffffffff168473ffffffffffffffffffffffffffffffffffffffff161480611fc85750611fc78484610c25565b5b8061200657508273ffffffffffffffffffffffffffffffffffffffff16611fee83610e23565b73ffffffffffffffffffffffffffffffffffffffff16145b5b90509392505050565b604051806040016040528060608152602001606081525090565b6000604051905090565b600080fd5b600080fd5b60007fffffffff0000000000000000000000000000000000000000000000000000000082169050919050565b6120738161203e565b811461207e57600080fd5b50565b6000813590506120908161206a565b92915050565b6000602082840312156120ac576120ab612034565b5b60006120ba84828501612081565b91505092915050565b60008115159050919050565b6120d8816120c3565b82525050565b60006020820190506120f360008301846120cf565b92915050565b600081519050919050565b600082825260208201905092915050565b60005b83811015612133578082015181840152602081019050612118565b60008484015250505050565b6000601f19601f8301169050919050565b600061215b826120f9565b6121658185612104565b9350612175818560208601612115565b61217e8161213f565b840191505092915050565b600060208201905081810360008301526121a38184612150565b905092915050565b6000819050919050565b6121be816121ab565b81146121c957600080fd5b50565b6000813590506121db816121b5565b92915050565b6000602082840312156121f7576121f6612034565b5b6000612205848285016121cc565b91505092915050565b600073ffffffffffffffffffffffffffffffffffffffff82169050919050565b60006122398261220e565b9050919050565b6122498161222e565b82525050565b60006020820190506122646000830184612240565b92915050565b6122738161222e565b811461227e57600080fd5b50565b6000813590506122908161226a565b92915050565b600080604083850312156122ad576122ac612034565b5b60006122bb85828601612281565b92505060206122cc858286016121cc565b9150509250929050565b6122df816121ab565b82525050565b60006020820190506122fa60008301846122d6565b92915050565b60008060006060848603121561231957612318612034565b5b600061232786828701612281565b935050602061233886828701612281565b9250506040612349868287016121cc565b9150509250925092565b600080fd5b600080fd5b7f4e487b7100000000000000000000000000000000000000000000000000000000600052604160045260246000fd5b6123958261213f565b810181811067ffffffffffffffff821117156123b4576123b361235d565b5b80604052505050565b60006123c761202a565b90506123d3828261238c565b919050565b600067ffffffffffffffff8211156123f3576123f261235d565b5b6123fc8261213f565b9050602081019050919050565b82818337600083830152505050565b600061242b612426846123d8565b6123bd565b90508281526020810184848401111561244757612446612358565b5b612452848285612409565b509392505050565b600082601f83011261246f5761246e612353565b5b813561247f848260208601612418565b91505092915050565b60006020828403121561249e5761249d612034565b5b600082013567ffffffffffffffff8111156124bc576124bb612039565b5b6124c88482850161245a565b91505092915050565b6000602082840312156124e7576124e6612034565b5b60006124f584828501612281565b91505092915050565b6000806040838503121561251557612514612034565b5b600083013567ffffffffffffffff81111561253357612532612039565b5b61253f8582860161245a565b925050602083013567ffffffffffffffff8111156125605761255f612039565b5b61256c8582860161245a565b9150509250929050565b61257f816120c3565b811461258a57600080fd5b50565b60008135905061259c81612576565b92915050565b600080604083850312156125b9576125b8612034565b5b60006125c785828601612281565b92505060206125d88582860161258d565b9150509250929050565b600082825260208201905092915050565b60006125fe826120f9565b61260881856125e2565b9350612618818560208601612115565b6126218161213f565b840191505092915050565b6000604083016000830151848203600086015261264982826125f3565b9150506020830151848203602086015261266382826125f3565b9150508091505092915050565b6000602082019050818103600083015261268a818461262c565b905092915050565b600067ffffffffffffffff8211156126ad576126ac61235d565b5b6126b68261213f565b9050602081019050919050565b60006126d66126d184612692565b6123bd565b9050828152602081018484840111156126f2576126f1612358565b5b6126fd848285612409565b509392505050565b600082601f83011261271a57612719612353565b5b813561272a8482602086016126c3565b91505092915050565b6000806000806080858703121561274d5761274c612034565b5b600061275b87828801612281565b945050602061276c87828801612281565b935050604061277d878288016121cc565b925050606085013567ffffffffffffffff81111561279e5761279d612039565b5b6127aa87828801612705565b91505092959194509250565b600080604083850312156127cd576127cc612034565b5b60006127db85828601612281565b92505060206127ec85828601612281565b9150509250929050565b7f4e487b7100000000000000000000000000000000000000000000000000000000600052602260045260246000fd5b6000600282049050600182168061283d57607f821691505b6020821081036128505761284f6127f6565b5b50919050565b600060608201905061286b6000830186612240565b61287860208301856122d6565b6128856040830184612240565b949350505050565b60006040820190506128a26000830185612240565b6128af60208301846122d6565b9392505050565b7f4e487b7100000000000000000000000000000000000000000000000000000000600052603260045260246000fd5b60008190508160005260206000209050919050565b60006020601f8301049050919050565b600082821b905092915050565b6000600883026129477fffffffffffffffffffffffffffffffffffffffffffffffffffffffffffffffff8261290a565b612951868361290a565b95508019841693508086168417925050509392505050565b6000819050919050565b600061298e612989612984846121ab565b612969565b6121ab565b9050919050565b6000819050919050565b6129a883612973565b6129bc6129b482612995565b848454612917565b825550505050565b600090565b6129d16129c4565b6129dc81848461299f565b505050565b5b81811015612a00576129f56000826129c9565b6001810190506129e2565b5050565b601f821115612a4557612a16816128e5565b612a1f846128fa565b81016020851015612a2e578190505b612a42612a3a856128fa565b8301826129e1565b50505b505050565b600082821c905092915050565b6000612a6860001984600802612a4a565b1980831691505092915050565b6000612a818383612a57565b9150826002028217905092915050565b612a9a826120f9565b67ffffffffffffffff811115612ab357612ab261235d565b5b612abd8254612825565b612ac8828285612a04565b600060209050601f831160018114612afb5760008415612ae9578287015190505b612af38582612a75565b865550612b5b565b601f198416612b09866128e5565b60005b82811015612b3157848901518255600182019150602085019450602081019050612b0c565b86831015612b4e5784890151612b4a601f891682612a57565b8355505b6001600288020188555050505b505050505050565b7f4552433732314d657461646174613a20517565727920666f72206e6f6e65786960008201527f7374656e7420746f6b656e000000000000000000000000000000000000000000602082015250565b6000612bbf602b83612104565b9150612bca82612b63565b604082019050919050565b60006020820190508181036000830152612bee81612bb2565b9050919050565b600081905092915050565b6000612c0b826120f9565b612c158185612bf5565b9350612c25818560208601612115565b80840191505092915050565b6000612c3d8285612c00565b9150612c498284612c00565b91508190509392505050565b600081519050919050565b600082825260208201905092915050565b6000612c7c82612c55565b612c868185612c60565b9350612c96818560208601612115565b612c9f8161213f565b840191505092915050565b6000608082019050612cbf6000830187612240565b612ccc6020830186612240565b612cd960408301856122d6565b8181036060830152612ceb8184612c71565b905095945050505050565b600081519050612d058161206a565b92915050565b600060208284031215612d2157612d20612034565b5b6000612d2f84828501612cf6565b91505092915050565b7f4e487b7100000000000000000000000000000000000000000000000000000000600052601260045260246000fd5b7f4e487b7100000000000000000000000000000000000000000000000000000000600052601160045260246000fd5b6000612da1826121ab565b9150612dac836121ab565b9250828203905081811115612dc457612dc3612d67565b5b92915050565b7f4e487b7100000000000000000000000000000000000000000000000000000000600052603160045260246000fdfea2646970667358221220fb625bb70b95473e8619f272801a9ad69f836a5b49e75ecdee0701006eb23a3164736f6c63430008180033",
  "linkReferences": {},
  "deployedLinkReferences": {}
}